{
  "contractName": "Auction",
  "abi": [
    {
      "constant": false,
      "inputs": [
        {
          "internalType": "uint256",
          "name": "_aid",
          "type": "uint256"
        },
        {
          "internalType": "string",
          "name": "_title",
          "type": "string"
        },
        {
          "internalType": "uint256",
          "name": "_price",
          "type": "uint256"
        },
        {
          "internalType": "string",
          "name": "_description",
          "type": "string"
        }
      ],
      "name": "createAsset",
      "outputs": [],
      "payable": false,
      "stateMutability": "nonpayable",
      "type": "function"
    },
    {
      "constant": true,
      "inputs": [
        {
          "internalType": "uint256",
          "name": "_aid",
          "type": "uint256"
        }
      ],
      "name": "getAsset",
      "outputs": [
        {
          "components": [
            {
              "internalType": "uint256",
              "name": "aid",
              "type": "uint256"
            },
            {
              "internalType": "address",
              "name": "owner",
              "type": "address"
            },
            {
              "internalType": "string",
              "name": "title",
              "type": "string"
            },
            {
              "internalType": "uint256",
              "name": "price",
              "type": "uint256"
            },
            {
              "internalType": "string",
              "name": "description",
              "type": "string"
            },
            {
              "internalType": "enum Auction.State",
              "name": "auctionState",
              "type": "uint8"
            },
            {
              "internalType": "address",
              "name": "highestbidder",
              "type": "address"
            },
            {
              "internalType": "uint256",
              "name": "highestprice",
              "type": "uint256"
            }
          ],
          "internalType": "struct Auction.Asset",
          "name": "a",
          "type": "tuple"
        }
      ],
      "payable": false,
      "stateMutability": "view",
      "type": "function"
    },
    {
      "constant": false,
      "inputs": [
        {
          "internalType": "uint256",
          "name": "_aid",
          "type": "uint256"
        },
        {
          "internalType": "uint256",
          "name": "_price",
          "type": "uint256"
        }
      ],
      "name": "placeBid",
      "outputs": [
        {
          "internalType": "bool",
          "name": "",
          "type": "bool"
        }
      ],
      "payable": true,
      "stateMutability": "payable",
      "type": "function"
    },
    {
      "constant": false,
      "inputs": [
        {
          "internalType": "uint256",
          "name": "_aid",
          "type": "uint256"
        },
        {
          "internalType": "address payable",
          "name": "receipt",
          "type": "address"
        }
      ],
      "name": "finalizeAuction",
      "outputs": [
        {
          "internalType": "bool",
          "name": "",
          "type": "bool"
        }
      ],
      "payable": true,
      "stateMutability": "payable",
      "type": "function"
    }
  ],
  "bytecode": "0x608060405234801561001057600080fd5b50610d16806100206000396000f3fe60806040526004361061003f5760003560e01c80631626b7591461004457806357c90de514610074578063e765bafa146100a4578063eac8f5b8146100cd575b600080fd5b61005e600480360361005991908101906108dd565b61010a565b60405161006b9190610b14565b60405180910390f35b61008e600480360361008991908101906109ac565b610216565b60405161009b9190610b14565b60405180910390f35b3480156100b057600080fd5b506100cb60048036036100c69190810190610919565b6103c5565b005b3480156100d957600080fd5b506100f460048036036100ef91908101906108b4565b6104ad565b6040516101019190610b2f565b60405180910390f35b600080600084815260200190815260200160002060010160009054906101000a900473ffffffffffffffffffffffffffffffffffffffff1673ffffffffffffffffffffffffffffffffffffffff163373ffffffffffffffffffffffffffffffffffffffff161461017957600080fd5b600160008085815260200190815260200160002060050160006101000a81548160ff021916908360018111156101ab57fe5b02179055508173ffffffffffffffffffffffffffffffffffffffff166108fc600080868152602001908152602001600020600601549081150290604051600060405180830381858888f1935050505015801561020b573d6000803e3d6000fd5b506001905092915050565b600080600181111561022457fe5b60008085815260200190815260200160002060050160009054906101000a900460ff16600181111561025257fe5b1461025c57600080fd5b3373ffffffffffffffffffffffffffffffffffffffff1660008085815260200190815260200160002060010160009054906101000a900473ffffffffffffffffffffffffffffffffffffffff1673ffffffffffffffffffffffffffffffffffffffff1614156102ca57600080fd5b600034116102d757600080fd5b6000808481526020019081526020016000206006015482116102f857600080fd5b816001600085815260200190815260200160002060003373ffffffffffffffffffffffffffffffffffffffff1673ffffffffffffffffffffffffffffffffffffffff168152602001908152602001600020819055503360008085815260200190815260200160002060050160016101000a81548173ffffffffffffffffffffffffffffffffffffffff021916908373ffffffffffffffffffffffffffffffffffffffff16021790555081600080858152602001908152602001600020600601819055506001905092915050565b600082116103d257600080fd5b60008060008681526020019081526020016000209050848160000181905550338160010160006101000a81548173ffffffffffffffffffffffffffffffffffffffff021916908373ffffffffffffffffffffffffffffffffffffffff1602179055508381600201908051906020019061044c929190610715565b508281600301819055508181600401908051906020019061046e929190610715565b50600080600087815260200190815260200160002060050160006101000a81548160ff021916908360018111156104a157fe5b02179055505050505050565b6104b5610795565b60008083815260200190815260200160002060405180610100016040529081600082015481526020016001820160009054906101000a900473ffffffffffffffffffffffffffffffffffffffff1673ffffffffffffffffffffffffffffffffffffffff1673ffffffffffffffffffffffffffffffffffffffff168152602001600282018054600181600116156101000203166002900480601f0160208091040260200160405190810160405280929190818152602001828054600181600116156101000203166002900480156105cc5780601f106105a1576101008083540402835291602001916105cc565b820191906000526020600020905b8154815290600101906020018083116105af57829003601f168201915b5050505050815260200160038201548152602001600482018054600181600116156101000203166002900480601f0160208091040260200160405190810160405280929190818152602001828054600181600116156101000203166002900480156106785780601f1061064d57610100808354040283529160200191610678565b820191906000526020600020905b81548152906001019060200180831161065b57829003601f168201915b505050505081526020016005820160009054906101000a900460ff16600181111561069f57fe5b60018111156106aa57fe5b81526020016005820160019054906101000a900473ffffffffffffffffffffffffffffffffffffffff1673ffffffffffffffffffffffffffffffffffffffff1673ffffffffffffffffffffffffffffffffffffffff1681526020016006820154815250509050919050565b828054600181600116156101000203166002900490600052602060002090601f016020900481019282601f1061075657805160ff1916838001178555610784565b82800160010185558215610784579182015b82811115610783578251825591602001919060010190610768565b5b5090506107919190610811565b5090565b60405180610100016040528060008152602001600073ffffffffffffffffffffffffffffffffffffffff168152602001606081526020016000815260200160608152602001600060018111156107e757fe5b8152602001600073ffffffffffffffffffffffffffffffffffffffff168152602001600081525090565b61083391905b8082111561082f576000816000905550600101610817565b5090565b90565b60008135905061084581610ca5565b92915050565b600082601f83011261085c57600080fd5b813561086f61086a82610b7e565b610b51565b9150808252602083016020830185838301111561088b57600080fd5b610896838284610c45565b50505092915050565b6000813590506108ae81610cbc565b92915050565b6000602082840312156108c657600080fd5b60006108d48482850161089f565b91505092915050565b600080604083850312156108f057600080fd5b60006108fe8582860161089f565b925050602061090f85828601610836565b9150509250929050565b6000806000806080858703121561092f57600080fd5b600061093d8782880161089f565b945050602085013567ffffffffffffffff81111561095a57600080fd5b6109668782880161084b565b93505060406109778782880161089f565b925050606085013567ffffffffffffffff81111561099457600080fd5b6109a08782880161084b565b91505092959194509250565b600080604083850312156109bf57600080fd5b60006109cd8582860161089f565b92505060206109de8582860161089f565b9150509250929050565b6109f181610bc6565b82525050565b610a0081610bea565b82525050565b610a0f81610c33565b82525050565b6000610a2082610baa565b610a2a8185610bb5565b9350610a3a818560208601610c54565b610a4381610c87565b840191505092915050565b600061010083016000830151610a676000860182610b05565b506020830151610a7a60208601826109e8565b5060408301518482036040860152610a928282610a15565b9150506060830151610aa76060860182610b05565b5060808301518482036080860152610abf8282610a15565b91505060a0830151610ad460a0860182610a06565b5060c0830151610ae760c08601826109e8565b5060e0830151610afa60e0860182610b05565b508091505092915050565b610b0e81610c29565b82525050565b6000602082019050610b2960008301846109f7565b92915050565b60006020820190508181036000830152610b498184610a4e565b905092915050565b6000604051905081810181811067ffffffffffffffff82111715610b7457600080fd5b8060405250919050565b600067ffffffffffffffff821115610b9557600080fd5b601f19601f8301169050602081019050919050565b600081519050919050565b600082825260208201905092915050565b6000610bd182610c09565b9050919050565b6000610be382610c09565b9050919050565b60008115159050919050565b6000819050610c0482610c98565b919050565b600073ffffffffffffffffffffffffffffffffffffffff82169050919050565b6000819050919050565b6000610c3e82610bf6565b9050919050565b82818337600083830152505050565b60005b83811015610c72578082015181840152602081019050610c57565b83811115610c81576000848401525b50505050565b6000601f19601f8301169050919050565b60028110610ca257fe5b50565b610cae81610bd8565b8114610cb957600080fd5b50565b610cc581610c29565b8114610cd057600080fd5b5056fea365627a7a723158202499b6c8e55e284661e91142959866016a3d119984b8d6983f4156079d3b9d8e6c6578706572696d656e74616cf564736f6c63430005100040",
  "source": "\r\npragma solidity >=0.4.22 <0.9.0;\r\npragma experimental ABIEncoderV2;\r\n\r\n// Importing OpenZeppelin's SafeMath Implementation\r\n//import \"https://github.com/OpenZeppelin/openzeppelin-solidity/contracts/math/SafeMath.sol\";\r\nimport \"./SafeMath.sol\";\r\n\r\n\r\ncontract Auction {\r\n    \r\n    using SafeMath for uint256;\r\n    enum State{ Running, Finalized}\r\n\r\n    struct Asset {\r\n    uint aid;\r\n    address  owner; \r\n    string title;\r\n    uint price;\r\n    string description;\r\n    State  auctionState;\r\n    address highestbidder;\r\n    uint highestprice;\r\n    }\r\n\r\n\r\n\r\n    mapping(uint => Asset)   assets ;\r\n    mapping(uint => mapping(address => uint))  bids;\r\n\r\n    \r\n   // function to create an asset\r\n\r\n   function createAsset (\r\n        uint _aid,\r\n        string memory _title,\r\n        uint _price,\r\n        string memory _description\r\n        ) public{\r\n        require(_price > 0);\r\n        Asset storage ast=assets[_aid];\r\n        ast.aid = _aid;\r\n        ast.owner = msg.sender;\r\n        ast.title = _title;\r\n        ast.price = _price;\r\n        ast.description = _description;\r\n        assets[_aid].auctionState = State.Running;\r\n\r\n    }\r\n    \r\n      \r\n    function getAsset(uint _aid) public view returns(Asset memory a){\r\n        return assets[_aid] ;\r\n    }\r\n    \r\n  \r\n    \r\n    function placeBid(uint _aid,uint _price) public payable  returns(bool) {\r\n        require(assets[_aid].auctionState == State.Running);            // check asset bid status\r\n        require(assets[_aid].owner != msg.sender);                       // asset owner cannot bit on his own\r\n        require(msg.value > 0);                                         // who ever calling value should be greater than zero\r\n        require(_price>assets[_aid].highestprice) ;                         // bidding price should be greater than existing price            \r\n        \r\n        bids[_aid][msg.sender]=_price;\r\n        assets[_aid].highestbidder= msg.sender;\r\n        assets[_aid].highestprice= _price;\r\n       // assets[_aid].price= _price;\r\n        return true;\r\n    }\r\n    \r\n    function finalizeAuction(uint _aid,address payable receipt) public payable returns (bool){\r\n        require(msg.sender == assets[_aid].owner); // only asset owner can access this function\r\n                assets[_aid].auctionState = State.Finalized; // only owner can stop the auction\r\n                // receipt =  assets[_aid].owner;\r\n        receipt.transfer(assets[_aid].highestprice); // once bid completed we are transfering the bid ammount to owner account\r\n            return true;\r\n    }\r\n    \r\n}",
  "sourcePath": "C:\\Users\\vinod\\Desktop\\vinod\\test1\\contracts\\Auction.sol",
  "compiler": {
    "name": "solc",
    "version": "0.5.16+commit.9c3226ce.Emscripten.clang"
  },
  "schemaVersion": "3.4.2",
  "updatedAt": "2021-08-13T17:58:24.064Z",
  "networkType": "ethereum",
  "devdoc": {
    "methods": {}
  },
  "userdoc": {
    "methods": {}
  }
}